{
	"FundMe.sol": {
		"FundMe": {
			"abi": [
				{
					"inputs": [
						{
							"internalType": "address",
							"name": "funder",
							"type": "address"
						}
					],
					"name": "adressToAmountFunded",
					"outputs": [
						{
							"internalType": "uint256",
							"name": "amountFunded",
							"type": "uint256"
						}
					],
					"stateMutability": "view",
					"type": "function"
				},
				{
					"inputs": [],
					"name": "fund",
					"outputs": [],
					"stateMutability": "payable",
					"type": "function"
				},
				{
					"inputs": [
						{
							"internalType": "uint256",
							"name": "",
							"type": "uint256"
						}
					],
					"name": "funders",
					"outputs": [
						{
							"internalType": "address",
							"name": "",
							"type": "address"
						}
					],
					"stateMutability": "view",
					"type": "function"
				},
				{
					"inputs": [],
					"name": "minUsd",
					"outputs": [
						{
							"internalType": "uint256",
							"name": "",
							"type": "uint256"
						}
					],
					"stateMutability": "view",
					"type": "function"
				}
			],
			"devdoc": {
				"kind": "dev",
				"methods": {},
				"version": 1
			},
			"evm": {
				"assembly": "    /* \"FundMe.sol\":110:556  contract FundMe {... */\n  mstore(0x40, 0x80)\n    /* \"FundMe.sol\":196:200  5e18 */\n  0x4563918244f40000\n    /* \"FundMe.sol\":172:200  uint256 public minUsd = 5e18 */\n  0x00\n  sstore\n    /* \"FundMe.sol\":110:556  contract FundMe {... */\n  callvalue\n  dup1\n  iszero\n  tag_1\n  jumpi\n  0x00\n  dup1\n  revert\ntag_1:\n  pop\n  dataSize(sub_0)\n  dup1\n  dataOffset(sub_0)\n  0x00\n  codecopy\n  0x00\n  return\nstop\n\nsub_0: assembly {\n        /* \"FundMe.sol\":110:556  contract FundMe {... */\n      mstore(0x40, 0x80)\n      jumpi(tag_1, lt(calldatasize, 0x04))\n      shr(0xe0, calldataload(0x00))\n      dup1\n      0x51b80e41\n      eq\n      tag_2\n      jumpi\n      dup1\n      0x55f2a7d5\n      eq\n      tag_3\n      jumpi\n      dup1\n      0xb60d4288\n      eq\n      tag_4\n      jumpi\n      dup1\n      0xdc0d3dff\n      eq\n      tag_5\n      jumpi\n    tag_1:\n      0x00\n      dup1\n      revert\n        /* \"FundMe.sol\":172:200  uint256 public minUsd = 5e18 */\n    tag_2:\n      callvalue\n      dup1\n      iszero\n      tag_6\n      jumpi\n      0x00\n      dup1\n      revert\n    tag_6:\n      pop\n      tag_7\n      tag_8\n      jump\t// in\n    tag_7:\n      mload(0x40)\n      tag_9\n      swap2\n      swap1\n      tag_10\n      jump\t// in\n    tag_9:\n      mload(0x40)\n      dup1\n      swap2\n      sub\n      swap1\n      return\n        /* \"FundMe.sol\":237:312  mapping(address funder => uint256 amountFunded) public adressToAmountFunded */\n    tag_3:\n      callvalue\n      dup1\n      iszero\n      tag_11\n      jumpi\n      0x00\n      dup1\n      revert\n    tag_11:\n      pop\n      tag_12\n      0x04\n      dup1\n      calldatasize\n      sub\n      dup2\n      add\n      swap1\n      tag_13\n      swap2\n      swap1\n      tag_14\n      jump\t// in\n    tag_13:\n      tag_15\n      jump\t// in\n    tag_12:\n      mload(0x40)\n      tag_16\n      swap2\n      swap1\n      tag_10\n      jump\t// in\n    tag_16:\n      mload(0x40)\n      dup1\n      swap2\n      sub\n      swap1\n      return\n        /* \"FundMe.sol\":320:553  function fund() public payable {... */\n    tag_4:\n      tag_17\n      tag_18\n      jump\t// in\n    tag_17:\n      stop\n        /* \"FundMe.sol\":207:231  address[] public funders */\n    tag_5:\n      callvalue\n      dup1\n      iszero\n      tag_19\n      jumpi\n      0x00\n      dup1\n      revert\n    tag_19:\n      pop\n      tag_20\n      0x04\n      dup1\n      calldatasize\n      sub\n      dup2\n      add\n      swap1\n      tag_21\n      swap2\n      swap1\n      tag_22\n      jump\t// in\n    tag_21:\n      tag_23\n      jump\t// in\n    tag_20:\n      mload(0x40)\n      tag_24\n      swap2\n      swap1\n      tag_25\n      jump\t// in\n    tag_24:\n      mload(0x40)\n      dup1\n      swap2\n      sub\n      swap1\n      return\n        /* \"FundMe.sol\":172:200  uint256 public minUsd = 5e18 */\n    tag_8:\n      sload(0x00)\n      dup2\n      jump\t// out\n        /* \"FundMe.sol\":237:312  mapping(address funder => uint256 amountFunded) public adressToAmountFunded */\n    tag_15:\n      mstore(0x20, 0x02)\n      dup1\n      0x00\n      mstore\n      keccak256(0x00, 0x40)\n      0x00\n      swap2\n      pop\n      swap1\n      pop\n      sload\n      dup2\n      jump\t// out\n        /* \"FundMe.sol\":320:553  function fund() public payable {... */\n    tag_18:\n        /* \"FundMe.sol\":402:408  minUsd */\n      sload(0x00)\n        /* \"FundMe.sol\":369:398  msg.value.getConversionRate() */\n      tag_27\n        /* \"FundMe.sol\":369:378  msg.value */\n      callvalue\n        /* \"FundMe.sol\":369:396  msg.value.getConversionRate */\n      tag_28\n        /* \"FundMe.sol\":369:398  msg.value.getConversionRate() */\n      jump\t// in\n    tag_27:\n        /* \"FundMe.sol\":369:408  msg.value.getConversionRate() >= minUsd */\n      lt\n      iszero\n        /* \"FundMe.sol\":361:423  require(msg.value.getConversionRate() >= minUsd, \"not enough\") */\n      tag_29\n      jumpi\n      mload(0x40)\n      0x08c379a000000000000000000000000000000000000000000000000000000000\n      dup2\n      mstore\n      0x04\n      add\n      tag_30\n      swap1\n      tag_31\n      jump\t// in\n    tag_30:\n      mload(0x40)\n      dup1\n      swap2\n      sub\n      swap1\n      revert\n    tag_29:\n        /* \"FundMe.sol\":433:440  funders */\n      0x01\n        /* \"FundMe.sol\":446:456  msg.sender */\n      caller\n        /* \"FundMe.sol\":433:457  funders.push(msg.sender) */\n      swap1\n      dup1\n      0x01\n      dup2\n      sload\n      add\n      dup1\n      dup3\n      sstore\n      dup1\n      swap2\n      pop\n      pop\n      0x01\n      swap1\n      sub\n      swap1\n      0x00\n      mstore\n      keccak256(0x00, 0x20)\n      add\n      0x00\n      swap1\n      swap2\n      swap1\n      swap2\n      swap1\n      swap2\n      0x0100\n      exp\n      dup2\n      sload\n      dup2\n      0xffffffffffffffffffffffffffffffffffffffff\n      mul\n      not\n      and\n      swap1\n      dup4\n      0xffffffffffffffffffffffffffffffffffffffff\n      and\n      mul\n      or\n      swap1\n      sstore\n      pop\n        /* \"FundMe.sol\":537:546  msg.value */\n      callvalue\n        /* \"FundMe.sol\":502:522  adressToAmountFunded */\n      0x02\n        /* \"FundMe.sol\":502:534  adressToAmountFunded[msg.sender] */\n      0x00\n        /* \"FundMe.sol\":523:533  msg.sender */\n      caller\n        /* \"FundMe.sol\":502:534  adressToAmountFunded[msg.sender] */\n      0xffffffffffffffffffffffffffffffffffffffff\n      and\n      0xffffffffffffffffffffffffffffffffffffffff\n      and\n      dup2\n      mstore\n      0x20\n      add\n      swap1\n      dup2\n      mstore\n      0x20\n      add\n      0x00\n      keccak256\n      sload\n        /* \"FundMe.sol\":502:546  adressToAmountFunded[msg.sender] + msg.value */\n      tag_33\n      swap2\n      swap1\n      tag_34\n      jump\t// in\n    tag_33:\n        /* \"FundMe.sol\":467:487  adressToAmountFunded */\n      0x02\n        /* \"FundMe.sol\":467:499  adressToAmountFunded[msg.sender] */\n      0x00\n        /* \"FundMe.sol\":488:498  msg.sender */\n      caller\n        /* \"FundMe.sol\":467:499  adressToAmountFunded[msg.sender] */\n      0xffffffffffffffffffffffffffffffffffffffff\n      and\n      0xffffffffffffffffffffffffffffffffffffffff\n      and\n      dup2\n      mstore\n      0x20\n      add\n      swap1\n      dup2\n      mstore\n      0x20\n      add\n      0x00\n      keccak256\n        /* \"FundMe.sol\":467:546  adressToAmountFunded[msg.sender] = adressToAmountFunded[msg.sender] + msg.value */\n      dup2\n      swap1\n      sstore\n      pop\n        /* \"FundMe.sol\":320:553  function fund() public payable {... */\n      jump\t// out\n        /* \"FundMe.sol\":207:231  address[] public funders */\n    tag_23:\n      0x01\n      dup2\n      dup2\n      sload\n      dup2\n      lt\n      tag_35\n      jumpi\n      0x00\n      dup1\n      revert\n    tag_35:\n      swap1\n      0x00\n      mstore\n      keccak256(0x00, 0x20)\n      add\n      0x00\n      swap2\n      pop\n      sload\n      swap1\n      0x0100\n      exp\n      swap1\n      div\n      0xffffffffffffffffffffffffffffffffffffffff\n      and\n      dup2\n      jump\t// out\n        /* \"PriceConverter.sol\":514:823  function getConversionRate(uint256 ethAmount)... */\n    tag_28:\n        /* \"PriceConverter.sol\":610:617  uint256 */\n      0x00\n        /* \"PriceConverter.sol\":689:705  uint256 ethPrice */\n      dup1\n        /* \"PriceConverter.sol\":708:718  getPrice() */\n      tag_38\n        /* \"PriceConverter.sol\":708:716  getPrice */\n      tag_39\n        /* \"PriceConverter.sol\":708:718  getPrice() */\n      jump\t// in\n    tag_38:\n        /* \"PriceConverter.sol\":689:718  uint256 ethPrice = getPrice() */\n      swap1\n      pop\n        /* \"PriceConverter.sol\":729:751  uint256 ethAmountInUsd */\n      0x00\n        /* \"PriceConverter.sol\":779:783  1e18 */\n      0x0de0b6b3a7640000\n        /* \"PriceConverter.sol\":767:775  ethPrice */\n      dup3\n        /* \"PriceConverter.sol\":755:764  ethAmount */\n      dup6\n        /* \"PriceConverter.sol\":755:775  ethAmount * ethPrice */\n      tag_40\n      swap2\n      swap1\n      tag_41\n      jump\t// in\n    tag_40:\n        /* \"PriceConverter.sol\":754:783  (ethAmount * ethPrice) / 1e18 */\n      tag_42\n      swap2\n      swap1\n      tag_43\n      jump\t// in\n    tag_42:\n        /* \"PriceConverter.sol\":729:783  uint256 ethAmountInUsd = (ethAmount * ethPrice) / 1e18 */\n      swap1\n      pop\n        /* \"PriceConverter.sol\":801:815  ethAmountInUsd */\n      dup1\n        /* \"PriceConverter.sol\":794:815  return ethAmountInUsd */\n      swap3\n      pop\n      pop\n      pop\n        /* \"PriceConverter.sol\":514:823  function getConversionRate(uint256 ethAmount)... */\n      swap2\n      swap1\n      pop\n      jump\t// out\n        /* \"PriceConverter.sol\":210:506  function getPrice() internal view returns (uint256) {... */\n    tag_39:\n        /* \"PriceConverter.sol\":253:260  uint256 */\n      0x00\n        /* \"PriceConverter.sol\":273:304  AggregatorV3Interface priceFeed */\n      dup1\n        /* \"PriceConverter.sol\":343:385  0x694AA1769357215DE4FAC081bf1f309aDC325306 */\n      0x694aa1769357215de4fac081bf1f309adc325306\n        /* \"PriceConverter.sol\":273:396  AggregatorV3Interface priceFeed = AggregatorV3Interface(... */\n      swap1\n      pop\n        /* \"PriceConverter.sol\":410:422  int256 price */\n      0x00\n        /* \"PriceConverter.sol\":432:441  priceFeed */\n      dup2\n        /* \"PriceConverter.sol\":432:457  priceFeed.latestRoundData */\n      0xffffffffffffffffffffffffffffffffffffffff\n      and\n      0xfeaf968c\n        /* \"PriceConverter.sol\":432:459  priceFeed.latestRoundData() */\n      mload(0x40)\n      dup2\n      0xffffffff\n      and\n      0xe0\n      shl\n      dup2\n      mstore\n      0x04\n      add\n      0xa0\n      mload(0x40)\n      dup1\n      dup4\n      sub\n      dup2\n      dup7\n      gas\n      staticcall\n      iszero\n      dup1\n      iszero\n      tag_46\n      jumpi\n      returndatasize\n      0x00\n      dup1\n      returndatacopy\n      revert(0x00, returndatasize)\n    tag_46:\n      pop\n      pop\n      pop\n      pop\n      mload(0x40)\n      returndatasize\n      not(0x1f)\n      0x1f\n      dup3\n      add\n      and\n      dup3\n      add\n      dup1\n      0x40\n      mstore\n      pop\n      dup2\n      add\n      swap1\n      tag_47\n      swap2\n      swap1\n      tag_48\n      jump\t// in\n    tag_47:\n        /* \"PriceConverter.sol\":407:459  (, int256 price, , , ) = priceFeed.latestRoundData() */\n      pop\n      pop\n      pop\n      swap2\n      pop\n      pop\n        /* \"PriceConverter.sol\":493:497  1e10 */\n      0x02540be400\n        /* \"PriceConverter.sol\":485:490  price */\n      dup2\n        /* \"PriceConverter.sol\":485:497  price * 1e10 */\n      tag_49\n      swap2\n      swap1\n      tag_50\n      jump\t// in\n    tag_49:\n        /* \"PriceConverter.sol\":470:498  return uint256(price * 1e10) */\n      swap3\n      pop\n      pop\n      pop\n        /* \"PriceConverter.sol\":210:506  function getPrice() internal view returns (uint256) {... */\n      swap1\n      jump\t// out\n        /* \"#utility.yul\":7:84   */\n    tag_51:\n        /* \"#utility.yul\":44:51   */\n      0x00\n        /* \"#utility.yul\":73:78   */\n      dup2\n        /* \"#utility.yul\":62:78   */\n      swap1\n      pop\n        /* \"#utility.yul\":7:84   */\n      swap2\n      swap1\n      pop\n      jump\t// out\n        /* \"#utility.yul\":90:208   */\n    tag_52:\n        /* \"#utility.yul\":177:201   */\n      tag_78\n        /* \"#utility.yul\":195:200   */\n      dup2\n        /* \"#utility.yul\":177:201   */\n      tag_51\n      jump\t// in\n    tag_78:\n        /* \"#utility.yul\":172:175   */\n      dup3\n        /* \"#utility.yul\":165:202   */\n      mstore\n        /* \"#utility.yul\":90:208   */\n      pop\n      pop\n      jump\t// out\n        /* \"#utility.yul\":214:436   */\n    tag_10:\n        /* \"#utility.yul\":307:311   */\n      0x00\n        /* \"#utility.yul\":345:347   */\n      0x20\n        /* \"#utility.yul\":334:343   */\n      dup3\n        /* \"#utility.yul\":330:348   */\n      add\n        /* \"#utility.yul\":322:348   */\n      swap1\n      pop\n        /* \"#utility.yul\":358:429   */\n      tag_80\n        /* \"#utility.yul\":426:427   */\n      0x00\n        /* \"#utility.yul\":415:424   */\n      dup4\n        /* \"#utility.yul\":411:428   */\n      add\n        /* \"#utility.yul\":402:408   */\n      dup5\n        /* \"#utility.yul\":358:429   */\n      tag_52\n      jump\t// in\n    tag_80:\n        /* \"#utility.yul\":214:436   */\n      swap3\n      swap2\n      pop\n      pop\n      jump\t// out\n        /* \"#utility.yul\":523:640   */\n    tag_54:\n        /* \"#utility.yul\":632:633   */\n      0x00\n        /* \"#utility.yul\":629:630   */\n      dup1\n        /* \"#utility.yul\":622:634   */\n      revert\n        /* \"#utility.yul\":769:895   */\n    tag_56:\n        /* \"#utility.yul\":806:813   */\n      0x00\n        /* \"#utility.yul\":846:888   */\n      0xffffffffffffffffffffffffffffffffffffffff\n        /* \"#utility.yul\":839:844   */\n      dup3\n        /* \"#utility.yul\":835:889   */\n      and\n        /* \"#utility.yul\":824:889   */\n      swap1\n      pop\n        /* \"#utility.yul\":769:895   */\n      swap2\n      swap1\n      pop\n      jump\t// out\n        /* \"#utility.yul\":901:997   */\n    tag_57:\n        /* \"#utility.yul\":938:945   */\n      0x00\n        /* \"#utility.yul\":967:991   */\n      tag_86\n        /* \"#utility.yul\":985:990   */\n      dup3\n        /* \"#utility.yul\":967:991   */\n      tag_56\n      jump\t// in\n    tag_86:\n        /* \"#utility.yul\":956:991   */\n      swap1\n      pop\n        /* \"#utility.yul\":901:997   */\n      swap2\n      swap1\n      pop\n      jump\t// out\n        /* \"#utility.yul\":1003:1125   */\n    tag_58:\n        /* \"#utility.yul\":1076:1100   */\n      tag_88\n        /* \"#utility.yul\":1094:1099   */\n      dup2\n        /* \"#utility.yul\":1076:1100   */\n      tag_57\n      jump\t// in\n    tag_88:\n        /* \"#utility.yul\":1069:1074   */\n      dup2\n        /* \"#utility.yul\":1066:1101   */\n      eq\n        /* \"#utility.yul\":1056:1119   */\n      tag_89\n      jumpi\n        /* \"#utility.yul\":1115:1116   */\n      0x00\n        /* \"#utility.yul\":1112:1113   */\n      dup1\n        /* \"#utility.yul\":1105:1117   */\n      revert\n        /* \"#utility.yul\":1056:1119   */\n    tag_89:\n        /* \"#utility.yul\":1003:1125   */\n      pop\n      jump\t// out\n        /* \"#utility.yul\":1131:1270   */\n    tag_59:\n        /* \"#utility.yul\":1177:1182   */\n      0x00\n        /* \"#utility.yul\":1215:1221   */\n      dup2\n        /* \"#utility.yul\":1202:1222   */\n      calldataload\n        /* \"#utility.yul\":1193:1222   */\n      swap1\n      pop\n        /* \"#utility.yul\":1231:1264   */\n      tag_91\n        /* \"#utility.yul\":1258:1263   */\n      dup2\n        /* \"#utility.yul\":1231:1264   */\n      tag_58\n      jump\t// in\n    tag_91:\n        /* \"#utility.yul\":1131:1270   */\n      swap3\n      swap2\n      pop\n      pop\n      jump\t// out\n        /* \"#utility.yul\":1276:1605   */\n    tag_14:\n        /* \"#utility.yul\":1335:1341   */\n      0x00\n        /* \"#utility.yul\":1384:1386   */\n      0x20\n        /* \"#utility.yul\":1372:1381   */\n      dup3\n        /* \"#utility.yul\":1363:1370   */\n      dup5\n        /* \"#utility.yul\":1359:1382   */\n      sub\n        /* \"#utility.yul\":1355:1387   */\n      slt\n        /* \"#utility.yul\":1352:1471   */\n      iszero\n      tag_93\n      jumpi\n        /* \"#utility.yul\":1390:1469   */\n      tag_94\n      tag_54\n      jump\t// in\n    tag_94:\n        /* \"#utility.yul\":1352:1471   */\n    tag_93:\n        /* \"#utility.yul\":1510:1511   */\n      0x00\n        /* \"#utility.yul\":1535:1588   */\n      tag_95\n        /* \"#utility.yul\":1580:1587   */\n      dup5\n        /* \"#utility.yul\":1571:1577   */\n      dup3\n        /* \"#utility.yul\":1560:1569   */\n      dup6\n        /* \"#utility.yul\":1556:1578   */\n      add\n        /* \"#utility.yul\":1535:1588   */\n      tag_59\n      jump\t// in\n    tag_95:\n        /* \"#utility.yul\":1525:1588   */\n      swap2\n      pop\n        /* \"#utility.yul\":1481:1598   */\n      pop\n        /* \"#utility.yul\":1276:1605   */\n      swap3\n      swap2\n      pop\n      pop\n      jump\t// out\n        /* \"#utility.yul\":1611:1733   */\n    tag_60:\n        /* \"#utility.yul\":1684:1708   */\n      tag_97\n        /* \"#utility.yul\":1702:1707   */\n      dup2\n        /* \"#utility.yul\":1684:1708   */\n      tag_51\n      jump\t// in\n    tag_97:\n        /* \"#utility.yul\":1677:1682   */\n      dup2\n        /* \"#utility.yul\":1674:1709   */\n      eq\n        /* \"#utility.yul\":1664:1727   */\n      tag_98\n      jumpi\n        /* \"#utility.yul\":1723:1724   */\n      0x00\n        /* \"#utility.yul\":1720:1721   */\n      dup1\n        /* \"#utility.yul\":1713:1725   */\n      revert\n        /* \"#utility.yul\":1664:1727   */\n    tag_98:\n        /* \"#utility.yul\":1611:1733   */\n      pop\n      jump\t// out\n        /* \"#utility.yul\":1739:1878   */\n    tag_61:\n        /* \"#utility.yul\":1785:1790   */\n      0x00\n        /* \"#utility.yul\":1823:1829   */\n      dup2\n        /* \"#utility.yul\":1810:1830   */\n      calldataload\n        /* \"#utility.yul\":1801:1830   */\n      swap1\n      pop\n        /* \"#utility.yul\":1839:1872   */\n      tag_100\n        /* \"#utility.yul\":1866:1871   */\n      dup2\n        /* \"#utility.yul\":1839:1872   */\n      tag_60\n      jump\t// in\n    tag_100:\n        /* \"#utility.yul\":1739:1878   */\n      swap3\n      swap2\n      pop\n      pop\n      jump\t// out\n        /* \"#utility.yul\":1884:2213   */\n    tag_22:\n        /* \"#utility.yul\":1943:1949   */\n      0x00\n        /* \"#utility.yul\":1992:1994   */\n      0x20\n        /* \"#utility.yul\":1980:1989   */\n      dup3\n        /* \"#utility.yul\":1971:1978   */\n      dup5\n        /* \"#utility.yul\":1967:1990   */\n      sub\n        /* \"#utility.yul\":1963:1995   */\n      slt\n        /* \"#utility.yul\":1960:2079   */\n      iszero\n      tag_102\n      jumpi\n        /* \"#utility.yul\":1998:2077   */\n      tag_103\n      tag_54\n      jump\t// in\n    tag_103:\n        /* \"#utility.yul\":1960:2079   */\n    tag_102:\n        /* \"#utility.yul\":2118:2119   */\n      0x00\n        /* \"#utility.yul\":2143:2196   */\n      tag_104\n        /* \"#utility.yul\":2188:2195   */\n      dup5\n        /* \"#utility.yul\":2179:2185   */\n      dup3\n        /* \"#utility.yul\":2168:2177   */\n      dup6\n        /* \"#utility.yul\":2164:2186   */\n      add\n        /* \"#utility.yul\":2143:2196   */\n      tag_61\n      jump\t// in\n    tag_104:\n        /* \"#utility.yul\":2133:2196   */\n      swap2\n      pop\n        /* \"#utility.yul\":2089:2206   */\n      pop\n        /* \"#utility.yul\":1884:2213   */\n      swap3\n      swap2\n      pop\n      pop\n      jump\t// out\n        /* \"#utility.yul\":2219:2337   */\n    tag_62:\n        /* \"#utility.yul\":2306:2330   */\n      tag_106\n        /* \"#utility.yul\":2324:2329   */\n      dup2\n        /* \"#utility.yul\":2306:2330   */\n      tag_57\n      jump\t// in\n    tag_106:\n        /* \"#utility.yul\":2301:2304   */\n      dup3\n        /* \"#utility.yul\":2294:2331   */\n      mstore\n        /* \"#utility.yul\":2219:2337   */\n      pop\n      pop\n      jump\t// out\n        /* \"#utility.yul\":2343:2565   */\n    tag_25:\n        /* \"#utility.yul\":2436:2440   */\n      0x00\n        /* \"#utility.yul\":2474:2476   */\n      0x20\n        /* \"#utility.yul\":2463:2472   */\n      dup3\n        /* \"#utility.yul\":2459:2477   */\n      add\n        /* \"#utility.yul\":2451:2477   */\n      swap1\n      pop\n        /* \"#utility.yul\":2487:2558   */\n      tag_108\n        /* \"#utility.yul\":2555:2556   */\n      0x00\n        /* \"#utility.yul\":2544:2553   */\n      dup4\n        /* \"#utility.yul\":2540:2557   */\n      add\n        /* \"#utility.yul\":2531:2537   */\n      dup5\n        /* \"#utility.yul\":2487:2558   */\n      tag_62\n      jump\t// in\n    tag_108:\n        /* \"#utility.yul\":2343:2565   */\n      swap3\n      swap2\n      pop\n      pop\n      jump\t// out\n        /* \"#utility.yul\":2571:2740   */\n    tag_63:\n        /* \"#utility.yul\":2655:2666   */\n      0x00\n        /* \"#utility.yul\":2689:2695   */\n      dup3\n        /* \"#utility.yul\":2684:2687   */\n      dup3\n        /* \"#utility.yul\":2677:2696   */\n      mstore\n        /* \"#utility.yul\":2729:2733   */\n      0x20\n        /* \"#utility.yul\":2724:2727   */\n      dup3\n        /* \"#utility.yul\":2720:2734   */\n      add\n        /* \"#utility.yul\":2705:2734   */\n      swap1\n      pop\n        /* \"#utility.yul\":2571:2740   */\n      swap3\n      swap2\n      pop\n      pop\n      jump\t// out\n        /* \"#utility.yul\":2746:2906   */\n    tag_64:\n        /* \"#utility.yul\":2886:2898   */\n      0x6e6f7420656e6f75676800000000000000000000000000000000000000000000\n        /* \"#utility.yul\":2882:2883   */\n      0x00\n        /* \"#utility.yul\":2874:2880   */\n      dup3\n        /* \"#utility.yul\":2870:2884   */\n      add\n        /* \"#utility.yul\":2863:2899   */\n      mstore\n        /* \"#utility.yul\":2746:2906   */\n      pop\n      jump\t// out\n        /* \"#utility.yul\":2912:3278   */\n    tag_65:\n        /* \"#utility.yul\":3054:3057   */\n      0x00\n        /* \"#utility.yul\":3075:3142   */\n      tag_112\n        /* \"#utility.yul\":3139:3141   */\n      0x0a\n        /* \"#utility.yul\":3134:3137   */\n      dup4\n        /* \"#utility.yul\":3075:3142   */\n      tag_63\n      jump\t// in\n    tag_112:\n        /* \"#utility.yul\":3068:3142   */\n      swap2\n      pop\n        /* \"#utility.yul\":3151:3244   */\n      tag_113\n        /* \"#utility.yul\":3240:3243   */\n      dup3\n        /* \"#utility.yul\":3151:3244   */\n      tag_64\n      jump\t// in\n    tag_113:\n        /* \"#utility.yul\":3269:3271   */\n      0x20\n        /* \"#utility.yul\":3264:3267   */\n      dup3\n        /* \"#utility.yul\":3260:3272   */\n      add\n        /* \"#utility.yul\":3253:3272   */\n      swap1\n      pop\n        /* \"#utility.yul\":2912:3278   */\n      swap2\n      swap1\n      pop\n      jump\t// out\n        /* \"#utility.yul\":3284:3703   */\n    tag_31:\n        /* \"#utility.yul\":3450:3454   */\n      0x00\n        /* \"#utility.yul\":3488:3490   */\n      0x20\n        /* \"#utility.yul\":3477:3486   */\n      dup3\n        /* \"#utility.yul\":3473:3491   */\n      add\n        /* \"#utility.yul\":3465:3491   */\n      swap1\n      pop\n        /* \"#utility.yul\":3537:3546   */\n      dup2\n        /* \"#utility.yul\":3531:3535   */\n      dup2\n        /* \"#utility.yul\":3527:3547   */\n      sub\n        /* \"#utility.yul\":3523:3524   */\n      0x00\n        /* \"#utility.yul\":3512:3521   */\n      dup4\n        /* \"#utility.yul\":3508:3525   */\n      add\n        /* \"#utility.yul\":3501:3548   */\n      mstore\n        /* \"#utility.yul\":3565:3696   */\n      tag_115\n        /* \"#utility.yul\":3691:3695   */\n      dup2\n        /* \"#utility.yul\":3565:3696   */\n      tag_65\n      jump\t// in\n    tag_115:\n        /* \"#utility.yul\":3557:3696   */\n      swap1\n      pop\n        /* \"#utility.yul\":3284:3703   */\n      swap2\n      swap1\n      pop\n      jump\t// out\n        /* \"#utility.yul\":3709:3889   */\n    tag_66:\n        /* \"#utility.yul\":3757:3834   */\n      0x4e487b7100000000000000000000000000000000000000000000000000000000\n        /* \"#utility.yul\":3754:3755   */\n      0x00\n        /* \"#utility.yul\":3747:3835   */\n      mstore\n        /* \"#utility.yul\":3854:3858   */\n      0x11\n        /* \"#utility.yul\":3851:3852   */\n      0x04\n        /* \"#utility.yul\":3844:3859   */\n      mstore\n        /* \"#utility.yul\":3878:3882   */\n      0x24\n        /* \"#utility.yul\":3875:3876   */\n      0x00\n        /* \"#utility.yul\":3868:3883   */\n      revert\n        /* \"#utility.yul\":3895:4086   */\n    tag_34:\n        /* \"#utility.yul\":3935:3938   */\n      0x00\n        /* \"#utility.yul\":3954:3974   */\n      tag_118\n        /* \"#utility.yul\":3972:3973   */\n      dup3\n        /* \"#utility.yul\":3954:3974   */\n      tag_51\n      jump\t// in\n    tag_118:\n        /* \"#utility.yul\":3949:3974   */\n      swap2\n      pop\n        /* \"#utility.yul\":3988:4008   */\n      tag_119\n        /* \"#utility.yul\":4006:4007   */\n      dup4\n        /* \"#utility.yul\":3988:4008   */\n      tag_51\n      jump\t// in\n    tag_119:\n        /* \"#utility.yul\":3983:4008   */\n      swap3\n      pop\n        /* \"#utility.yul\":4031:4032   */\n      dup3\n        /* \"#utility.yul\":4028:4029   */\n      dup3\n        /* \"#utility.yul\":4024:4033   */\n      add\n        /* \"#utility.yul\":4017:4033   */\n      swap1\n      pop\n        /* \"#utility.yul\":4052:4055   */\n      dup1\n        /* \"#utility.yul\":4049:4050   */\n      dup3\n        /* \"#utility.yul\":4046:4056   */\n      gt\n        /* \"#utility.yul\":4043:4079   */\n      iszero\n      tag_120\n      jumpi\n        /* \"#utility.yul\":4059:4077   */\n      tag_121\n      tag_66\n      jump\t// in\n    tag_121:\n        /* \"#utility.yul\":4043:4079   */\n    tag_120:\n        /* \"#utility.yul\":3895:4086   */\n      swap3\n      swap2\n      pop\n      pop\n      jump\t// out\n        /* \"#utility.yul\":4092:4502   */\n    tag_41:\n        /* \"#utility.yul\":4132:4139   */\n      0x00\n        /* \"#utility.yul\":4155:4175   */\n      tag_123\n        /* \"#utility.yul\":4173:4174   */\n      dup3\n        /* \"#utility.yul\":4155:4175   */\n      tag_51\n      jump\t// in\n    tag_123:\n        /* \"#utility.yul\":4150:4175   */\n      swap2\n      pop\n        /* \"#utility.yul\":4189:4209   */\n      tag_124\n        /* \"#utility.yul\":4207:4208   */\n      dup4\n        /* \"#utility.yul\":4189:4209   */\n      tag_51\n      jump\t// in\n    tag_124:\n        /* \"#utility.yul\":4184:4209   */\n      swap3\n      pop\n        /* \"#utility.yul\":4244:4245   */\n      dup3\n        /* \"#utility.yul\":4241:4242   */\n      dup3\n        /* \"#utility.yul\":4237:4246   */\n      mul\n        /* \"#utility.yul\":4266:4296   */\n      tag_125\n        /* \"#utility.yul\":4284:4295   */\n      dup2\n        /* \"#utility.yul\":4266:4296   */\n      tag_51\n      jump\t// in\n    tag_125:\n        /* \"#utility.yul\":4255:4296   */\n      swap2\n      pop\n        /* \"#utility.yul\":4445:4446   */\n      dup3\n        /* \"#utility.yul\":4436:4443   */\n      dup3\n        /* \"#utility.yul\":4432:4447   */\n      div\n        /* \"#utility.yul\":4429:4430   */\n      dup5\n        /* \"#utility.yul\":4426:4448   */\n      eq\n        /* \"#utility.yul\":4406:4407   */\n      dup4\n        /* \"#utility.yul\":4399:4408   */\n      iszero\n        /* \"#utility.yul\":4379:4462   */\n      or\n        /* \"#utility.yul\":4356:4495   */\n      tag_126\n      jumpi\n        /* \"#utility.yul\":4475:4493   */\n      tag_127\n      tag_66\n      jump\t// in\n    tag_127:\n        /* \"#utility.yul\":4356:4495   */\n    tag_126:\n        /* \"#utility.yul\":4140:4502   */\n      pop\n        /* \"#utility.yul\":4092:4502   */\n      swap3\n      swap2\n      pop\n      pop\n      jump\t// out\n        /* \"#utility.yul\":4508:4688   */\n    tag_67:\n        /* \"#utility.yul\":4556:4633   */\n      0x4e487b7100000000000000000000000000000000000000000000000000000000\n        /* \"#utility.yul\":4553:4554   */\n      0x00\n        /* \"#utility.yul\":4546:4634   */\n      mstore\n        /* \"#utility.yul\":4653:4657   */\n      0x12\n        /* \"#utility.yul\":4650:4651   */\n      0x04\n        /* \"#utility.yul\":4643:4658   */\n      mstore\n        /* \"#utility.yul\":4677:4681   */\n      0x24\n        /* \"#utility.yul\":4674:4675   */\n      0x00\n        /* \"#utility.yul\":4667:4682   */\n      revert\n        /* \"#utility.yul\":4694:4879   */\n    tag_43:\n        /* \"#utility.yul\":4734:4735   */\n      0x00\n        /* \"#utility.yul\":4751:4771   */\n      tag_130\n        /* \"#utility.yul\":4769:4770   */\n      dup3\n        /* \"#utility.yul\":4751:4771   */\n      tag_51\n      jump\t// in\n    tag_130:\n        /* \"#utility.yul\":4746:4771   */\n      swap2\n      pop\n        /* \"#utility.yul\":4785:4805   */\n      tag_131\n        /* \"#utility.yul\":4803:4804   */\n      dup4\n        /* \"#utility.yul\":4785:4805   */\n      tag_51\n      jump\t// in\n    tag_131:\n        /* \"#utility.yul\":4780:4805   */\n      swap3\n      pop\n        /* \"#utility.yul\":4824:4825   */\n      dup3\n        /* \"#utility.yul\":4814:4849   */\n      tag_132\n      jumpi\n        /* \"#utility.yul\":4829:4847   */\n      tag_133\n      tag_67\n      jump\t// in\n    tag_133:\n        /* \"#utility.yul\":4814:4849   */\n    tag_132:\n        /* \"#utility.yul\":4871:4872   */\n      dup3\n        /* \"#utility.yul\":4868:4869   */\n      dup3\n        /* \"#utility.yul\":4864:4873   */\n      div\n        /* \"#utility.yul\":4859:4873   */\n      swap1\n      pop\n        /* \"#utility.yul\":4694:4879   */\n      swap3\n      swap2\n      pop\n      pop\n      jump\t// out\n        /* \"#utility.yul\":4885:4990   */\n    tag_68:\n        /* \"#utility.yul\":4921:4928   */\n      0x00\n        /* \"#utility.yul\":4961:4983   */\n      0xffffffffffffffffffff\n        /* \"#utility.yul\":4954:4959   */\n      dup3\n        /* \"#utility.yul\":4950:4984   */\n      and\n        /* \"#utility.yul\":4939:4984   */\n      swap1\n      pop\n        /* \"#utility.yul\":4885:4990   */\n      swap2\n      swap1\n      pop\n      jump\t// out\n        /* \"#utility.yul\":4996:5116   */\n    tag_69:\n        /* \"#utility.yul\":5068:5091   */\n      tag_136\n        /* \"#utility.yul\":5085:5090   */\n      dup2\n        /* \"#utility.yul\":5068:5091   */\n      tag_68\n      jump\t// in\n    tag_136:\n        /* \"#utility.yul\":5061:5066   */\n      dup2\n        /* \"#utility.yul\":5058:5092   */\n      eq\n        /* \"#utility.yul\":5048:5110   */\n      tag_137\n      jumpi\n        /* \"#utility.yul\":5106:5107   */\n      0x00\n        /* \"#utility.yul\":5103:5104   */\n      dup1\n        /* \"#utility.yul\":5096:5108   */\n      revert\n        /* \"#utility.yul\":5048:5110   */\n    tag_137:\n        /* \"#utility.yul\":4996:5116   */\n      pop\n      jump\t// out\n        /* \"#utility.yul\":5122:5263   */\n    tag_70:\n        /* \"#utility.yul\":5178:5183   */\n      0x00\n        /* \"#utility.yul\":5209:5215   */\n      dup2\n        /* \"#utility.yul\":5203:5216   */\n      mload\n        /* \"#utility.yul\":5194:5216   */\n      swap1\n      pop\n        /* \"#utility.yul\":5225:5257   */\n      tag_139\n        /* \"#utility.yul\":5251:5256   */\n      dup2\n        /* \"#utility.yul\":5225:5257   */\n      tag_69\n      jump\t// in\n    tag_139:\n        /* \"#utility.yul\":5122:5263   */\n      swap3\n      swap2\n      pop\n      pop\n      jump\t// out\n        /* \"#utility.yul\":5269:5345   */\n    tag_71:\n        /* \"#utility.yul\":5305:5312   */\n      0x00\n        /* \"#utility.yul\":5334:5339   */\n      dup2\n        /* \"#utility.yul\":5323:5339   */\n      swap1\n      pop\n        /* \"#utility.yul\":5269:5345   */\n      swap2\n      swap1\n      pop\n      jump\t// out\n        /* \"#utility.yul\":5351:5471   */\n    tag_72:\n        /* \"#utility.yul\":5423:5446   */\n      tag_142\n        /* \"#utility.yul\":5440:5445   */\n      dup2\n        /* \"#utility.yul\":5423:5446   */\n      tag_71\n      jump\t// in\n    tag_142:\n        /* \"#utility.yul\":5416:5421   */\n      dup2\n        /* \"#utility.yul\":5413:5447   */\n      eq\n        /* \"#utility.yul\":5403:5465   */\n      tag_143\n      jumpi\n        /* \"#utility.yul\":5461:5462   */\n      0x00\n        /* \"#utility.yul\":5458:5459   */\n      dup1\n        /* \"#utility.yul\":5451:5463   */\n      revert\n        /* \"#utility.yul\":5403:5465   */\n    tag_143:\n        /* \"#utility.yul\":5351:5471   */\n      pop\n      jump\t// out\n        /* \"#utility.yul\":5477:5618   */\n    tag_73:\n        /* \"#utility.yul\":5533:5538   */\n      0x00\n        /* \"#utility.yul\":5564:5570   */\n      dup2\n        /* \"#utility.yul\":5558:5571   */\n      mload\n        /* \"#utility.yul\":5549:5571   */\n      swap1\n      pop\n        /* \"#utility.yul\":5580:5612   */\n      tag_145\n        /* \"#utility.yul\":5606:5611   */\n      dup2\n        /* \"#utility.yul\":5580:5612   */\n      tag_72\n      jump\t// in\n    tag_145:\n        /* \"#utility.yul\":5477:5618   */\n      swap3\n      swap2\n      pop\n      pop\n      jump\t// out\n        /* \"#utility.yul\":5624:5767   */\n    tag_74:\n        /* \"#utility.yul\":5681:5686   */\n      0x00\n        /* \"#utility.yul\":5712:5718   */\n      dup2\n        /* \"#utility.yul\":5706:5719   */\n      mload\n        /* \"#utility.yul\":5697:5719   */\n      swap1\n      pop\n        /* \"#utility.yul\":5728:5761   */\n      tag_147\n        /* \"#utility.yul\":5755:5760   */\n      dup2\n        /* \"#utility.yul\":5728:5761   */\n      tag_60\n      jump\t// in\n    tag_147:\n        /* \"#utility.yul\":5624:5767   */\n      swap3\n      swap2\n      pop\n      pop\n      jump\t// out\n        /* \"#utility.yul\":5773:6744   */\n    tag_48:\n        /* \"#utility.yul\":5876:5882   */\n      0x00\n        /* \"#utility.yul\":5884:5890   */\n      dup1\n        /* \"#utility.yul\":5892:5898   */\n      0x00\n        /* \"#utility.yul\":5900:5906   */\n      dup1\n        /* \"#utility.yul\":5908:5914   */\n      0x00\n        /* \"#utility.yul\":5957:5960   */\n      0xa0\n        /* \"#utility.yul\":5945:5954   */\n      dup7\n        /* \"#utility.yul\":5936:5943   */\n      dup9\n        /* \"#utility.yul\":5932:5955   */\n      sub\n        /* \"#utility.yul\":5928:5961   */\n      slt\n        /* \"#utility.yul\":5925:6045   */\n      iszero\n      tag_149\n      jumpi\n        /* \"#utility.yul\":5964:6043   */\n      tag_150\n      tag_54\n      jump\t// in\n    tag_150:\n        /* \"#utility.yul\":5925:6045   */\n    tag_149:\n        /* \"#utility.yul\":6084:6085   */\n      0x00\n        /* \"#utility.yul\":6109:6172   */\n      tag_151\n        /* \"#utility.yul\":6164:6171   */\n      dup9\n        /* \"#utility.yul\":6155:6161   */\n      dup3\n        /* \"#utility.yul\":6144:6153   */\n      dup10\n        /* \"#utility.yul\":6140:6162   */\n      add\n        /* \"#utility.yul\":6109:6172   */\n      tag_70\n      jump\t// in\n    tag_151:\n        /* \"#utility.yul\":6099:6172   */\n      swap6\n      pop\n        /* \"#utility.yul\":6055:6182   */\n      pop\n        /* \"#utility.yul\":6221:6223   */\n      0x20\n        /* \"#utility.yul\":6247:6310   */\n      tag_152\n        /* \"#utility.yul\":6302:6309   */\n      dup9\n        /* \"#utility.yul\":6293:6299   */\n      dup3\n        /* \"#utility.yul\":6282:6291   */\n      dup10\n        /* \"#utility.yul\":6278:6300   */\n      add\n        /* \"#utility.yul\":6247:6310   */\n      tag_73\n      jump\t// in\n    tag_152:\n        /* \"#utility.yul\":6237:6310   */\n      swap5\n      pop\n        /* \"#utility.yul\":6192:6320   */\n      pop\n        /* \"#utility.yul\":6359:6361   */\n      0x40\n        /* \"#utility.yul\":6385:6449   */\n      tag_153\n        /* \"#utility.yul\":6441:6448   */\n      dup9\n        /* \"#utility.yul\":6432:6438   */\n      dup3\n        /* \"#utility.yul\":6421:6430   */\n      dup10\n        /* \"#utility.yul\":6417:6439   */\n      add\n        /* \"#utility.yul\":6385:6449   */\n      tag_74\n      jump\t// in\n    tag_153:\n        /* \"#utility.yul\":6375:6449   */\n      swap4\n      pop\n        /* \"#utility.yul\":6330:6459   */\n      pop\n        /* \"#utility.yul\":6498:6500   */\n      0x60\n        /* \"#utility.yul\":6524:6588   */\n      tag_154\n        /* \"#utility.yul\":6580:6587   */\n      dup9\n        /* \"#utility.yul\":6571:6577   */\n      dup3\n        /* \"#utility.yul\":6560:6569   */\n      dup10\n        /* \"#utility.yul\":6556:6578   */\n      add\n        /* \"#utility.yul\":6524:6588   */\n      tag_74\n      jump\t// in\n    tag_154:\n        /* \"#utility.yul\":6514:6588   */\n      swap3\n      pop\n        /* \"#utility.yul\":6469:6598   */\n      pop\n        /* \"#utility.yul\":6637:6640   */\n      0x80\n        /* \"#utility.yul\":6664:6727   */\n      tag_155\n        /* \"#utility.yul\":6719:6726   */\n      dup9\n        /* \"#utility.yul\":6710:6716   */\n      dup3\n        /* \"#utility.yul\":6699:6708   */\n      dup10\n        /* \"#utility.yul\":6695:6717   */\n      add\n        /* \"#utility.yul\":6664:6727   */\n      tag_70\n      jump\t// in\n    tag_155:\n        /* \"#utility.yul\":6654:6727   */\n      swap2\n      pop\n        /* \"#utility.yul\":6608:6737   */\n      pop\n        /* \"#utility.yul\":5773:6744   */\n      swap3\n      swap6\n      pop\n      swap3\n      swap6\n      swap1\n      swap4\n      pop\n      jump\t// out\n        /* \"#utility.yul\":6750:7306   */\n    tag_50:\n        /* \"#utility.yul\":6789:6796   */\n      0x00\n        /* \"#utility.yul\":6812:6831   */\n      tag_157\n        /* \"#utility.yul\":6829:6830   */\n      dup3\n        /* \"#utility.yul\":6812:6831   */\n      tag_71\n      jump\t// in\n    tag_157:\n        /* \"#utility.yul\":6807:6831   */\n      swap2\n      pop\n        /* \"#utility.yul\":6845:6864   */\n      tag_158\n        /* \"#utility.yul\":6862:6863   */\n      dup4\n        /* \"#utility.yul\":6845:6864   */\n      tag_71\n      jump\t// in\n    tag_158:\n        /* \"#utility.yul\":6840:6864   */\n      swap3\n      pop\n        /* \"#utility.yul\":6899:6900   */\n      dup3\n        /* \"#utility.yul\":6896:6897   */\n      dup3\n        /* \"#utility.yul\":6892:6901   */\n      mul\n        /* \"#utility.yul\":6921:6950   */\n      tag_159\n        /* \"#utility.yul\":6938:6949   */\n      dup2\n        /* \"#utility.yul\":6921:6950   */\n      tag_71\n      jump\t// in\n    tag_159:\n        /* \"#utility.yul\":6910:6950   */\n      swap2\n      pop\n        /* \"#utility.yul\":7008:7074   */\n      0x8000000000000000000000000000000000000000000000000000000000000000\n        /* \"#utility.yul\":7005:7006   */\n      dup5\n        /* \"#utility.yul\":7002:7075   */\n      eq\n        /* \"#utility.yul\":6998:6999   */\n      0x00\n        /* \"#utility.yul\":6995:6996   */\n      dup5\n        /* \"#utility.yul\":6991:7000   */\n      slt\n        /* \"#utility.yul\":6987:7076   */\n      and\n        /* \"#utility.yul\":6984:7099   */\n      iszero\n      tag_160\n      jumpi\n        /* \"#utility.yul\":7079:7097   */\n      tag_161\n      tag_66\n      jump\t// in\n    tag_161:\n        /* \"#utility.yul\":6984:7099   */\n    tag_160:\n        /* \"#utility.yul\":7249:7250   */\n      dup3\n        /* \"#utility.yul\":7240:7247   */\n      dup3\n        /* \"#utility.yul\":7235:7251   */\n      sdiv\n        /* \"#utility.yul\":7232:7233   */\n      dup5\n        /* \"#utility.yul\":7229:7252   */\n      eq\n        /* \"#utility.yul\":7209:7210   */\n      dup4\n        /* \"#utility.yul\":7202:7211   */\n      iszero\n        /* \"#utility.yul\":7182:7266   */\n      or\n        /* \"#utility.yul\":7159:7299   */\n      tag_162\n      jumpi\n        /* \"#utility.yul\":7279:7297   */\n      tag_163\n      tag_66\n      jump\t// in\n    tag_163:\n        /* \"#utility.yul\":7159:7299   */\n    tag_162:\n        /* \"#utility.yul\":6797:7306   */\n      pop\n        /* \"#utility.yul\":6750:7306   */\n      swap3\n      swap2\n      pop\n      pop\n      jump\t// out\n\n    auxdata: 0xa2646970667358221220d7b33371b75cbb5e60051f01c38ff29f6050fe2c7f0930b8ffb1cc161b3ec19c64736f6c634300081a0033\n}\n",
				"bytecode": {
					"linkReferences": {},
					"object": "6080604052674563918244f400005f553480156019575f80fd5b506107ae806100275f395ff3fe60806040526004361061003e575f3560e01c806351b80e411461004257806355f2a7d51461006c578063b60d4288146100a8578063dc0d3dff146100b2575b5f80fd5b34801561004d575f80fd5b506100566100ee565b6040516100639190610370565b60405180910390f35b348015610077575f80fd5b50610092600480360381019061008d91906103e7565b6100f3565b60405161009f9190610370565b60405180910390f35b6100b0610108565b005b3480156100bd575f80fd5b506100d860048036038101906100d3919061043c565b610240565b6040516100e59190610476565b60405180910390f35b5f5481565b6002602052805f5260405f205f915090505481565b5f546101133461027b565b1015610154576040517f08c379a000000000000000000000000000000000000000000000000000000000815260040161014b906104e9565b60405180910390fd5b600133908060018154018082558091505060019003905f5260205f20015f9091909190916101000a81548173ffffffffffffffffffffffffffffffffffffffff021916908373ffffffffffffffffffffffffffffffffffffffff1602179055503460025f3373ffffffffffffffffffffffffffffffffffffffff1673ffffffffffffffffffffffffffffffffffffffff1681526020019081526020015f20546101fd9190610534565b60025f3373ffffffffffffffffffffffffffffffffffffffff1673ffffffffffffffffffffffffffffffffffffffff1681526020019081526020015f2081905550565b6001818154811061024f575f80fd5b905f5260205f20015f915054906101000a900473ffffffffffffffffffffffffffffffffffffffff1681565b5f806102856102b3565b90505f670de0b6b3a7640000828561029d9190610567565b6102a791906105d5565b90508092505050919050565b5f8073694aa1769357215de4fac081bf1f309adc32530690505f8173ffffffffffffffffffffffffffffffffffffffff1663feaf968c6040518163ffffffff1660e01b815260040160a060405180830381865afa158015610316573d5f803e3d5ffd5b505050506040513d601f19601f8201168201806040525081019061033a919061068b565b5050509150506402540be400816103519190610702565b9250505090565b5f819050919050565b61036a81610358565b82525050565b5f6020820190506103835f830184610361565b92915050565b5f80fd5b5f73ffffffffffffffffffffffffffffffffffffffff82169050919050565b5f6103b68261038d565b9050919050565b6103c6816103ac565b81146103d0575f80fd5b50565b5f813590506103e1816103bd565b92915050565b5f602082840312156103fc576103fb610389565b5b5f610409848285016103d3565b91505092915050565b61041b81610358565b8114610425575f80fd5b50565b5f8135905061043681610412565b92915050565b5f6020828403121561045157610450610389565b5b5f61045e84828501610428565b91505092915050565b610470816103ac565b82525050565b5f6020820190506104895f830184610467565b92915050565b5f82825260208201905092915050565b7f6e6f7420656e6f756768000000000000000000000000000000000000000000005f82015250565b5f6104d3600a8361048f565b91506104de8261049f565b602082019050919050565b5f6020820190508181035f830152610500816104c7565b9050919050565b7f4e487b71000000000000000000000000000000000000000000000000000000005f52601160045260245ffd5b5f61053e82610358565b915061054983610358565b925082820190508082111561056157610560610507565b5b92915050565b5f61057182610358565b915061057c83610358565b925082820261058a81610358565b915082820484148315176105a1576105a0610507565b5b5092915050565b7f4e487b71000000000000000000000000000000000000000000000000000000005f52601260045260245ffd5b5f6105df82610358565b91506105ea83610358565b9250826105fa576105f96105a8565b5b828204905092915050565b5f69ffffffffffffffffffff82169050919050565b61062381610605565b811461062d575f80fd5b50565b5f8151905061063e8161061a565b92915050565b5f819050919050565b61065681610644565b8114610660575f80fd5b50565b5f815190506106718161064d565b92915050565b5f8151905061068581610412565b92915050565b5f805f805f60a086880312156106a4576106a3610389565b5b5f6106b188828901610630565b95505060206106c288828901610663565b94505060406106d388828901610677565b93505060606106e488828901610677565b92505060806106f588828901610630565b9150509295509295909350565b5f61070c82610644565b915061071783610644565b925082820261072581610644565b91507f800000000000000000000000000000000000000000000000000000000000000084145f8412161561075c5761075b610507565b5b828205841483151761077157610770610507565b5b509291505056fea2646970667358221220d7b33371b75cbb5e60051f01c38ff29f6050fe2c7f0930b8ffb1cc161b3ec19c64736f6c634300081a0033",
					"opcodes": "PUSH1 0x80 PUSH1 0x40 MSTORE PUSH8 0x4563918244F40000 PUSH0 SSTORE CALLVALUE DUP1 ISZERO PUSH1 0x19 JUMPI PUSH0 DUP1 REVERT JUMPDEST POP PUSH2 0x7AE DUP1 PUSH2 0x27 PUSH0 CODECOPY PUSH0 RETURN INVALID PUSH1 0x80 PUSH1 0x40 MSTORE PUSH1 0x4 CALLDATASIZE LT PUSH2 0x3E JUMPI PUSH0 CALLDATALOAD PUSH1 0xE0 SHR DUP1 PUSH4 0x51B80E41 EQ PUSH2 0x42 JUMPI DUP1 PUSH4 0x55F2A7D5 EQ PUSH2 0x6C JUMPI DUP1 PUSH4 0xB60D4288 EQ PUSH2 0xA8 JUMPI DUP1 PUSH4 0xDC0D3DFF EQ PUSH2 0xB2 JUMPI JUMPDEST PUSH0 DUP1 REVERT JUMPDEST CALLVALUE DUP1 ISZERO PUSH2 0x4D JUMPI PUSH0 DUP1 REVERT JUMPDEST POP PUSH2 0x56 PUSH2 0xEE JUMP JUMPDEST PUSH1 0x40 MLOAD PUSH2 0x63 SWAP2 SWAP1 PUSH2 0x370 JUMP JUMPDEST PUSH1 0x40 MLOAD DUP1 SWAP2 SUB SWAP1 RETURN JUMPDEST CALLVALUE DUP1 ISZERO PUSH2 0x77 JUMPI PUSH0 DUP1 REVERT JUMPDEST POP PUSH2 0x92 PUSH1 0x4 DUP1 CALLDATASIZE SUB DUP2 ADD SWAP1 PUSH2 0x8D SWAP2 SWAP1 PUSH2 0x3E7 JUMP JUMPDEST PUSH2 0xF3 JUMP JUMPDEST PUSH1 0x40 MLOAD PUSH2 0x9F SWAP2 SWAP1 PUSH2 0x370 JUMP JUMPDEST PUSH1 0x40 MLOAD DUP1 SWAP2 SUB SWAP1 RETURN JUMPDEST PUSH2 0xB0 PUSH2 0x108 JUMP JUMPDEST STOP JUMPDEST CALLVALUE DUP1 ISZERO PUSH2 0xBD JUMPI PUSH0 DUP1 REVERT JUMPDEST POP PUSH2 0xD8 PUSH1 0x4 DUP1 CALLDATASIZE SUB DUP2 ADD SWAP1 PUSH2 0xD3 SWAP2 SWAP1 PUSH2 0x43C JUMP JUMPDEST PUSH2 0x240 JUMP JUMPDEST PUSH1 0x40 MLOAD PUSH2 0xE5 SWAP2 SWAP1 PUSH2 0x476 JUMP JUMPDEST PUSH1 0x40 MLOAD DUP1 SWAP2 SUB SWAP1 RETURN JUMPDEST PUSH0 SLOAD DUP2 JUMP JUMPDEST PUSH1 0x2 PUSH1 0x20 MSTORE DUP1 PUSH0 MSTORE PUSH1 0x40 PUSH0 KECCAK256 PUSH0 SWAP2 POP SWAP1 POP SLOAD DUP2 JUMP JUMPDEST PUSH0 SLOAD PUSH2 0x113 CALLVALUE PUSH2 0x27B JUMP JUMPDEST LT ISZERO PUSH2 0x154 JUMPI PUSH1 0x40 MLOAD PUSH32 0x8C379A000000000000000000000000000000000000000000000000000000000 DUP2 MSTORE PUSH1 0x4 ADD PUSH2 0x14B SWAP1 PUSH2 0x4E9 JUMP JUMPDEST PUSH1 0x40 MLOAD DUP1 SWAP2 SUB SWAP1 REVERT JUMPDEST PUSH1 0x1 CALLER SWAP1 DUP1 PUSH1 0x1 DUP2 SLOAD ADD DUP1 DUP3 SSTORE DUP1 SWAP2 POP POP PUSH1 0x1 SWAP1 SUB SWAP1 PUSH0 MSTORE PUSH1 0x20 PUSH0 KECCAK256 ADD PUSH0 SWAP1 SWAP2 SWAP1 SWAP2 SWAP1 SWAP2 PUSH2 0x100 EXP DUP2 SLOAD DUP2 PUSH20 0xFFFFFFFFFFFFFFFFFFFFFFFFFFFFFFFFFFFFFFFF MUL NOT AND SWAP1 DUP4 PUSH20 0xFFFFFFFFFFFFFFFFFFFFFFFFFFFFFFFFFFFFFFFF AND MUL OR SWAP1 SSTORE POP CALLVALUE PUSH1 0x2 PUSH0 CALLER PUSH20 0xFFFFFFFFFFFFFFFFFFFFFFFFFFFFFFFFFFFFFFFF AND PUSH20 0xFFFFFFFFFFFFFFFFFFFFFFFFFFFFFFFFFFFFFFFF AND DUP2 MSTORE PUSH1 0x20 ADD SWAP1 DUP2 MSTORE PUSH1 0x20 ADD PUSH0 KECCAK256 SLOAD PUSH2 0x1FD SWAP2 SWAP1 PUSH2 0x534 JUMP JUMPDEST PUSH1 0x2 PUSH0 CALLER PUSH20 0xFFFFFFFFFFFFFFFFFFFFFFFFFFFFFFFFFFFFFFFF AND PUSH20 0xFFFFFFFFFFFFFFFFFFFFFFFFFFFFFFFFFFFFFFFF AND DUP2 MSTORE PUSH1 0x20 ADD SWAP1 DUP2 MSTORE PUSH1 0x20 ADD PUSH0 KECCAK256 DUP2 SWAP1 SSTORE POP JUMP JUMPDEST PUSH1 0x1 DUP2 DUP2 SLOAD DUP2 LT PUSH2 0x24F JUMPI PUSH0 DUP1 REVERT JUMPDEST SWAP1 PUSH0 MSTORE PUSH1 0x20 PUSH0 KECCAK256 ADD PUSH0 SWAP2 POP SLOAD SWAP1 PUSH2 0x100 EXP SWAP1 DIV PUSH20 0xFFFFFFFFFFFFFFFFFFFFFFFFFFFFFFFFFFFFFFFF AND DUP2 JUMP JUMPDEST PUSH0 DUP1 PUSH2 0x285 PUSH2 0x2B3 JUMP JUMPDEST SWAP1 POP PUSH0 PUSH8 0xDE0B6B3A7640000 DUP3 DUP6 PUSH2 0x29D SWAP2 SWAP1 PUSH2 0x567 JUMP JUMPDEST PUSH2 0x2A7 SWAP2 SWAP1 PUSH2 0x5D5 JUMP JUMPDEST SWAP1 POP DUP1 SWAP3 POP POP POP SWAP2 SWAP1 POP JUMP JUMPDEST PUSH0 DUP1 PUSH20 0x694AA1769357215DE4FAC081BF1F309ADC325306 SWAP1 POP PUSH0 DUP2 PUSH20 0xFFFFFFFFFFFFFFFFFFFFFFFFFFFFFFFFFFFFFFFF AND PUSH4 0xFEAF968C PUSH1 0x40 MLOAD DUP2 PUSH4 0xFFFFFFFF AND PUSH1 0xE0 SHL DUP2 MSTORE PUSH1 0x4 ADD PUSH1 0xA0 PUSH1 0x40 MLOAD DUP1 DUP4 SUB DUP2 DUP7 GAS STATICCALL ISZERO DUP1 ISZERO PUSH2 0x316 JUMPI RETURNDATASIZE PUSH0 DUP1 RETURNDATACOPY RETURNDATASIZE PUSH0 REVERT JUMPDEST POP POP POP POP PUSH1 0x40 MLOAD RETURNDATASIZE PUSH1 0x1F NOT PUSH1 0x1F DUP3 ADD AND DUP3 ADD DUP1 PUSH1 0x40 MSTORE POP DUP2 ADD SWAP1 PUSH2 0x33A SWAP2 SWAP1 PUSH2 0x68B JUMP JUMPDEST POP POP POP SWAP2 POP POP PUSH5 0x2540BE400 DUP2 PUSH2 0x351 SWAP2 SWAP1 PUSH2 0x702 JUMP JUMPDEST SWAP3 POP POP POP SWAP1 JUMP JUMPDEST PUSH0 DUP2 SWAP1 POP SWAP2 SWAP1 POP JUMP JUMPDEST PUSH2 0x36A DUP2 PUSH2 0x358 JUMP JUMPDEST DUP3 MSTORE POP POP JUMP JUMPDEST PUSH0 PUSH1 0x20 DUP3 ADD SWAP1 POP PUSH2 0x383 PUSH0 DUP4 ADD DUP5 PUSH2 0x361 JUMP JUMPDEST SWAP3 SWAP2 POP POP JUMP JUMPDEST PUSH0 DUP1 REVERT JUMPDEST PUSH0 PUSH20 0xFFFFFFFFFFFFFFFFFFFFFFFFFFFFFFFFFFFFFFFF DUP3 AND SWAP1 POP SWAP2 SWAP1 POP JUMP JUMPDEST PUSH0 PUSH2 0x3B6 DUP3 PUSH2 0x38D JUMP JUMPDEST SWAP1 POP SWAP2 SWAP1 POP JUMP JUMPDEST PUSH2 0x3C6 DUP2 PUSH2 0x3AC JUMP JUMPDEST DUP2 EQ PUSH2 0x3D0 JUMPI PUSH0 DUP1 REVERT JUMPDEST POP JUMP JUMPDEST PUSH0 DUP2 CALLDATALOAD SWAP1 POP PUSH2 0x3E1 DUP2 PUSH2 0x3BD JUMP JUMPDEST SWAP3 SWAP2 POP POP JUMP JUMPDEST PUSH0 PUSH1 0x20 DUP3 DUP5 SUB SLT ISZERO PUSH2 0x3FC JUMPI PUSH2 0x3FB PUSH2 0x389 JUMP JUMPDEST JUMPDEST PUSH0 PUSH2 0x409 DUP5 DUP3 DUP6 ADD PUSH2 0x3D3 JUMP JUMPDEST SWAP2 POP POP SWAP3 SWAP2 POP POP JUMP JUMPDEST PUSH2 0x41B DUP2 PUSH2 0x358 JUMP JUMPDEST DUP2 EQ PUSH2 0x425 JUMPI PUSH0 DUP1 REVERT JUMPDEST POP JUMP JUMPDEST PUSH0 DUP2 CALLDATALOAD SWAP1 POP PUSH2 0x436 DUP2 PUSH2 0x412 JUMP JUMPDEST SWAP3 SWAP2 POP POP JUMP JUMPDEST PUSH0 PUSH1 0x20 DUP3 DUP5 SUB SLT ISZERO PUSH2 0x451 JUMPI PUSH2 0x450 PUSH2 0x389 JUMP JUMPDEST JUMPDEST PUSH0 PUSH2 0x45E DUP5 DUP3 DUP6 ADD PUSH2 0x428 JUMP JUMPDEST SWAP2 POP POP SWAP3 SWAP2 POP POP JUMP JUMPDEST PUSH2 0x470 DUP2 PUSH2 0x3AC JUMP JUMPDEST DUP3 MSTORE POP POP JUMP JUMPDEST PUSH0 PUSH1 0x20 DUP3 ADD SWAP1 POP PUSH2 0x489 PUSH0 DUP4 ADD DUP5 PUSH2 0x467 JUMP JUMPDEST SWAP3 SWAP2 POP POP JUMP JUMPDEST PUSH0 DUP3 DUP3 MSTORE PUSH1 0x20 DUP3 ADD SWAP1 POP SWAP3 SWAP2 POP POP JUMP JUMPDEST PUSH32 0x6E6F7420656E6F75676800000000000000000000000000000000000000000000 PUSH0 DUP3 ADD MSTORE POP JUMP JUMPDEST PUSH0 PUSH2 0x4D3 PUSH1 0xA DUP4 PUSH2 0x48F JUMP JUMPDEST SWAP2 POP PUSH2 0x4DE DUP3 PUSH2 0x49F JUMP JUMPDEST PUSH1 0x20 DUP3 ADD SWAP1 POP SWAP2 SWAP1 POP JUMP JUMPDEST PUSH0 PUSH1 0x20 DUP3 ADD SWAP1 POP DUP2 DUP2 SUB PUSH0 DUP4 ADD MSTORE PUSH2 0x500 DUP2 PUSH2 0x4C7 JUMP JUMPDEST SWAP1 POP SWAP2 SWAP1 POP JUMP JUMPDEST PUSH32 0x4E487B7100000000000000000000000000000000000000000000000000000000 PUSH0 MSTORE PUSH1 0x11 PUSH1 0x4 MSTORE PUSH1 0x24 PUSH0 REVERT JUMPDEST PUSH0 PUSH2 0x53E DUP3 PUSH2 0x358 JUMP JUMPDEST SWAP2 POP PUSH2 0x549 DUP4 PUSH2 0x358 JUMP JUMPDEST SWAP3 POP DUP3 DUP3 ADD SWAP1 POP DUP1 DUP3 GT ISZERO PUSH2 0x561 JUMPI PUSH2 0x560 PUSH2 0x507 JUMP JUMPDEST JUMPDEST SWAP3 SWAP2 POP POP JUMP JUMPDEST PUSH0 PUSH2 0x571 DUP3 PUSH2 0x358 JUMP JUMPDEST SWAP2 POP PUSH2 0x57C DUP4 PUSH2 0x358 JUMP JUMPDEST SWAP3 POP DUP3 DUP3 MUL PUSH2 0x58A DUP2 PUSH2 0x358 JUMP JUMPDEST SWAP2 POP DUP3 DUP3 DIV DUP5 EQ DUP4 ISZERO OR PUSH2 0x5A1 JUMPI PUSH2 0x5A0 PUSH2 0x507 JUMP JUMPDEST JUMPDEST POP SWAP3 SWAP2 POP POP JUMP JUMPDEST PUSH32 0x4E487B7100000000000000000000000000000000000000000000000000000000 PUSH0 MSTORE PUSH1 0x12 PUSH1 0x4 MSTORE PUSH1 0x24 PUSH0 REVERT JUMPDEST PUSH0 PUSH2 0x5DF DUP3 PUSH2 0x358 JUMP JUMPDEST SWAP2 POP PUSH2 0x5EA DUP4 PUSH2 0x358 JUMP JUMPDEST SWAP3 POP DUP3 PUSH2 0x5FA JUMPI PUSH2 0x5F9 PUSH2 0x5A8 JUMP JUMPDEST JUMPDEST DUP3 DUP3 DIV SWAP1 POP SWAP3 SWAP2 POP POP JUMP JUMPDEST PUSH0 PUSH10 0xFFFFFFFFFFFFFFFFFFFF DUP3 AND SWAP1 POP SWAP2 SWAP1 POP JUMP JUMPDEST PUSH2 0x623 DUP2 PUSH2 0x605 JUMP JUMPDEST DUP2 EQ PUSH2 0x62D JUMPI PUSH0 DUP1 REVERT JUMPDEST POP JUMP JUMPDEST PUSH0 DUP2 MLOAD SWAP1 POP PUSH2 0x63E DUP2 PUSH2 0x61A JUMP JUMPDEST SWAP3 SWAP2 POP POP JUMP JUMPDEST PUSH0 DUP2 SWAP1 POP SWAP2 SWAP1 POP JUMP JUMPDEST PUSH2 0x656 DUP2 PUSH2 0x644 JUMP JUMPDEST DUP2 EQ PUSH2 0x660 JUMPI PUSH0 DUP1 REVERT JUMPDEST POP JUMP JUMPDEST PUSH0 DUP2 MLOAD SWAP1 POP PUSH2 0x671 DUP2 PUSH2 0x64D JUMP JUMPDEST SWAP3 SWAP2 POP POP JUMP JUMPDEST PUSH0 DUP2 MLOAD SWAP1 POP PUSH2 0x685 DUP2 PUSH2 0x412 JUMP JUMPDEST SWAP3 SWAP2 POP POP JUMP JUMPDEST PUSH0 DUP1 PUSH0 DUP1 PUSH0 PUSH1 0xA0 DUP7 DUP9 SUB SLT ISZERO PUSH2 0x6A4 JUMPI PUSH2 0x6A3 PUSH2 0x389 JUMP JUMPDEST JUMPDEST PUSH0 PUSH2 0x6B1 DUP9 DUP3 DUP10 ADD PUSH2 0x630 JUMP JUMPDEST SWAP6 POP POP PUSH1 0x20 PUSH2 0x6C2 DUP9 DUP3 DUP10 ADD PUSH2 0x663 JUMP JUMPDEST SWAP5 POP POP PUSH1 0x40 PUSH2 0x6D3 DUP9 DUP3 DUP10 ADD PUSH2 0x677 JUMP JUMPDEST SWAP4 POP POP PUSH1 0x60 PUSH2 0x6E4 DUP9 DUP3 DUP10 ADD PUSH2 0x677 JUMP JUMPDEST SWAP3 POP POP PUSH1 0x80 PUSH2 0x6F5 DUP9 DUP3 DUP10 ADD PUSH2 0x630 JUMP JUMPDEST SWAP2 POP POP SWAP3 SWAP6 POP SWAP3 SWAP6 SWAP1 SWAP4 POP JUMP JUMPDEST PUSH0 PUSH2 0x70C DUP3 PUSH2 0x644 JUMP JUMPDEST SWAP2 POP PUSH2 0x717 DUP4 PUSH2 0x644 JUMP JUMPDEST SWAP3 POP DUP3 DUP3 MUL PUSH2 0x725 DUP2 PUSH2 0x644 JUMP JUMPDEST SWAP2 POP PUSH32 0x8000000000000000000000000000000000000000000000000000000000000000 DUP5 EQ PUSH0 DUP5 SLT AND ISZERO PUSH2 0x75C JUMPI PUSH2 0x75B PUSH2 0x507 JUMP JUMPDEST JUMPDEST DUP3 DUP3 SDIV DUP5 EQ DUP4 ISZERO OR PUSH2 0x771 JUMPI PUSH2 0x770 PUSH2 0x507 JUMP JUMPDEST JUMPDEST POP SWAP3 SWAP2 POP POP JUMP INVALID LOG2 PUSH5 0x6970667358 0x22 SLT KECCAK256 0xD7 0xB3 CALLER PUSH18 0xB75CBB5E60051F01C38FF29F6050FE2C7F09 ADDRESS 0xB8 SELFDESTRUCT 0xB1 0xCC AND SHL RETURNDATACOPY 0xC1 SWAP13 PUSH5 0x736F6C6343 STOP ADDMOD BYTE STOP CALLER "
				},
				"gasEstimates": {
					"creation": {
						"codeDepositCost": "393200",
						"executionCost": "22533",
						"totalCost": "415733"
					},
					"external": {
						"adressToAmountFunded(address)": "2802",
						"fund()": "infinite",
						"funders(uint256)": "4988",
						"minUsd()": "2402"
					}
				},
				"methodIdentifiers": {
					"adressToAmountFunded(address)": "55f2a7d5",
					"fund()": "b60d4288",
					"funders(uint256)": "dc0d3dff",
					"minUsd()": "51b80e41"
				}
			},
			"storageLayout": {
				"storage": [
					{
						"astId": 55,
						"contract": "FundMe.sol:FundMe",
						"label": "minUsd",
						"offset": 0,
						"slot": "0",
						"type": "t_uint256"
					},
					{
						"astId": 58,
						"contract": "FundMe.sol:FundMe",
						"label": "funders",
						"offset": 0,
						"slot": "1",
						"type": "t_array(t_address)dyn_storage"
					},
					{
						"astId": 62,
						"contract": "FundMe.sol:FundMe",
						"label": "adressToAmountFunded",
						"offset": 0,
						"slot": "2",
						"type": "t_mapping(t_address,t_uint256)"
					}
				],
				"types": {
					"t_address": {
						"encoding": "inplace",
						"label": "address",
						"numberOfBytes": "20"
					},
					"t_array(t_address)dyn_storage": {
						"base": "t_address",
						"encoding": "dynamic_array",
						"label": "address[]",
						"numberOfBytes": "32"
					},
					"t_mapping(t_address,t_uint256)": {
						"encoding": "mapping",
						"key": "t_address",
						"label": "mapping(address => uint256)",
						"numberOfBytes": "32",
						"value": "t_uint256"
					},
					"t_uint256": {
						"encoding": "inplace",
						"label": "uint256",
						"numberOfBytes": "32"
					}
				}
			},
			"userdoc": {
				"kind": "user",
				"methods": {},
				"version": 1
			}
		}
	}
}