{
	"data": {
		"bytecode": {
			"linkReferences": {},
			"object": "608060405260015f553480156012575f80fd5b50610203806100205f395ff3fe608060405260043610610028575f3560e01c806347f1aae71461002c578063b60d428814610056575b5f80fd5b348015610037575f80fd5b50610040610060565b60405161004d91906100dc565b60405180910390f35b61005e610065565b005b5f5481565b60025f546100739190610122565b5f81905550670de0b6b3a764000034116100c2576040517f08c379a00000000000000000000000000000000000000000000000000000000081526004016100b9906101af565b60405180910390fd5b565b5f819050919050565b6100d6816100c4565b82525050565b5f6020820190506100ef5f8301846100cd565b92915050565b7f4e487b71000000000000000000000000000000000000000000000000000000005f52601160045260245ffd5b5f61012c826100c4565b9150610137836100c4565b925082820190508082111561014f5761014e6100f5565b5b92915050565b5f82825260208201905092915050565b7f6e6f7420656e6f756768000000000000000000000000000000000000000000005f82015250565b5f610199600a83610155565b91506101a482610165565b602082019050919050565b5f6020820190508181035f8301526101c68161018d565b905091905056fea2646970667358221220551a8a825e4ecdf5bcc5769822954e954e55ffc7612952f3e9b57331974d35bc64736f6c634300081a0033",
			"opcodes": "PUSH1 0x80 PUSH1 0x40 MSTORE PUSH1 0x1 PUSH0 SSTORE CALLVALUE DUP1 ISZERO PUSH1 0x12 JUMPI PUSH0 DUP1 REVERT JUMPDEST POP PUSH2 0x203 DUP1 PUSH2 0x20 PUSH0 CODECOPY PUSH0 RETURN INVALID PUSH1 0x80 PUSH1 0x40 MSTORE PUSH1 0x4 CALLDATASIZE LT PUSH2 0x28 JUMPI PUSH0 CALLDATALOAD PUSH1 0xE0 SHR DUP1 PUSH4 0x47F1AAE7 EQ PUSH2 0x2C JUMPI DUP1 PUSH4 0xB60D4288 EQ PUSH2 0x56 JUMPI JUMPDEST PUSH0 DUP1 REVERT JUMPDEST CALLVALUE DUP1 ISZERO PUSH2 0x37 JUMPI PUSH0 DUP1 REVERT JUMPDEST POP PUSH2 0x40 PUSH2 0x60 JUMP JUMPDEST PUSH1 0x40 MLOAD PUSH2 0x4D SWAP2 SWAP1 PUSH2 0xDC JUMP JUMPDEST PUSH1 0x40 MLOAD DUP1 SWAP2 SUB SWAP1 RETURN JUMPDEST PUSH2 0x5E PUSH2 0x65 JUMP JUMPDEST STOP JUMPDEST PUSH0 SLOAD DUP2 JUMP JUMPDEST PUSH1 0x2 PUSH0 SLOAD PUSH2 0x73 SWAP2 SWAP1 PUSH2 0x122 JUMP JUMPDEST PUSH0 DUP2 SWAP1 SSTORE POP PUSH8 0xDE0B6B3A7640000 CALLVALUE GT PUSH2 0xC2 JUMPI PUSH1 0x40 MLOAD PUSH32 0x8C379A000000000000000000000000000000000000000000000000000000000 DUP2 MSTORE PUSH1 0x4 ADD PUSH2 0xB9 SWAP1 PUSH2 0x1AF JUMP JUMPDEST PUSH1 0x40 MLOAD DUP1 SWAP2 SUB SWAP1 REVERT JUMPDEST JUMP JUMPDEST PUSH0 DUP2 SWAP1 POP SWAP2 SWAP1 POP JUMP JUMPDEST PUSH2 0xD6 DUP2 PUSH2 0xC4 JUMP JUMPDEST DUP3 MSTORE POP POP JUMP JUMPDEST PUSH0 PUSH1 0x20 DUP3 ADD SWAP1 POP PUSH2 0xEF PUSH0 DUP4 ADD DUP5 PUSH2 0xCD JUMP JUMPDEST SWAP3 SWAP2 POP POP JUMP JUMPDEST PUSH32 0x4E487B7100000000000000000000000000000000000000000000000000000000 PUSH0 MSTORE PUSH1 0x11 PUSH1 0x4 MSTORE PUSH1 0x24 PUSH0 REVERT JUMPDEST PUSH0 PUSH2 0x12C DUP3 PUSH2 0xC4 JUMP JUMPDEST SWAP2 POP PUSH2 0x137 DUP4 PUSH2 0xC4 JUMP JUMPDEST SWAP3 POP DUP3 DUP3 ADD SWAP1 POP DUP1 DUP3 GT ISZERO PUSH2 0x14F JUMPI PUSH2 0x14E PUSH2 0xF5 JUMP JUMPDEST JUMPDEST SWAP3 SWAP2 POP POP JUMP JUMPDEST PUSH0 DUP3 DUP3 MSTORE PUSH1 0x20 DUP3 ADD SWAP1 POP SWAP3 SWAP2 POP POP JUMP JUMPDEST PUSH32 0x6E6F7420656E6F75676800000000000000000000000000000000000000000000 PUSH0 DUP3 ADD MSTORE POP JUMP JUMPDEST PUSH0 PUSH2 0x199 PUSH1 0xA DUP4 PUSH2 0x155 JUMP JUMPDEST SWAP2 POP PUSH2 0x1A4 DUP3 PUSH2 0x165 JUMP JUMPDEST PUSH1 0x20 DUP3 ADD SWAP1 POP SWAP2 SWAP1 POP JUMP JUMPDEST PUSH0 PUSH1 0x20 DUP3 ADD SWAP1 POP DUP2 DUP2 SUB PUSH0 DUP4 ADD MSTORE PUSH2 0x1C6 DUP2 PUSH2 0x18D JUMP JUMPDEST SWAP1 POP SWAP2 SWAP1 POP JUMP INVALID LOG2 PUSH5 0x6970667358 0x22 SLT KECCAK256 SSTORE BYTE DUP11 DUP3 MCOPY 0x4E 0xCD CREATE2 0xBC 0xC5 PUSH23 0x9822954E954E55FFC7612952F3E9B57331974D35BC6473 PUSH16 0x6C634300081A00330000000000000000 "
		},
		"gasEstimates": {
			"creation": {
				"codeDepositCost": "103000",
				"executionCost": "22256",
				"totalCost": "125256"
			},
			"external": {
				"fund()": "infinite",
				"myValue()": "2402"
			}
		},
		"methodIdentifiers": {
			"fund()": "b60d4288",
			"myValue()": "47f1aae7"
		}
	},
	"abi": [
		{
			"inputs": [],
			"name": "fund",
			"outputs": [],
			"stateMutability": "payable",
			"type": "function"
		},
		{
			"inputs": [],
			"name": "myValue",
			"outputs": [
				{
					"internalType": "uint256",
					"name": "",
					"type": "uint256"
				}
			],
			"stateMutability": "view",
			"type": "function"
		}
	]
}