{
	"data": {
		"bytecode": {
			"linkReferences": {},
			"object": "608060405260015f553480156012575f80fd5b5061035e806100205f395ff3fe608060405260043610610049575f3560e01c80630d8e6e2c1461004d57806347f1aae71461007757806398d5fdca146100a1578063b60d4288146100b7578063f36089ec146100c1575b5f80fd5b348015610058575f80fd5b506100616100d7565b60405161006e91906101de565b60405180910390f35b348015610082575f80fd5b5061008b61015e565b60405161009891906101de565b60405180910390f35b3480156100ac575f80fd5b506100b5610163565b005b6100bf610165565b005b3480156100cc575f80fd5b506100d56101c4565b005b5f73694aa1769357215de4fac081bf1f309adc32530673ffffffffffffffffffffffffffffffffffffffff166354fd4d506040518163ffffffff1660e01b8152600401602060405180830381865afa158015610135573d5f803e3d5ffd5b505050506040513d601f19601f820116820180604052508101906101599190610225565b905090565b5f5481565b565b60025f54610173919061027d565b5f81905550670de0b6b3a764000034116101c2576040517f08c379a00000000000000000000000000000000000000000000000000000000081526004016101b99061030a565b60405180910390fd5b565b565b5f819050919050565b6101d8816101c6565b82525050565b5f6020820190506101f15f8301846101cf565b92915050565b5f80fd5b610204816101c6565b811461020e575f80fd5b50565b5f8151905061021f816101fb565b92915050565b5f6020828403121561023a576102396101f7565b5b5f61024784828501610211565b91505092915050565b7f4e487b71000000000000000000000000000000000000000000000000000000005f52601160045260245ffd5b5f610287826101c6565b9150610292836101c6565b92508282019050808211156102aa576102a9610250565b5b92915050565b5f82825260208201905092915050565b7f6e6f7420656e6f756768000000000000000000000000000000000000000000005f82015250565b5f6102f4600a836102b0565b91506102ff826102c0565b602082019050919050565b5f6020820190508181035f830152610321816102e8565b905091905056fea26469706673582212201371e5d0060502cce1861cf79a00bdda1aa49d0bd745505bcb1cb28d37b1078064736f6c634300081a0033",
			"opcodes": "PUSH1 0x80 PUSH1 0x40 MSTORE PUSH1 0x1 PUSH0 SSTORE CALLVALUE DUP1 ISZERO PUSH1 0x12 JUMPI PUSH0 DUP1 REVERT JUMPDEST POP PUSH2 0x35E DUP1 PUSH2 0x20 PUSH0 CODECOPY PUSH0 RETURN INVALID PUSH1 0x80 PUSH1 0x40 MSTORE PUSH1 0x4 CALLDATASIZE LT PUSH2 0x49 JUMPI PUSH0 CALLDATALOAD PUSH1 0xE0 SHR DUP1 PUSH4 0xD8E6E2C EQ PUSH2 0x4D JUMPI DUP1 PUSH4 0x47F1AAE7 EQ PUSH2 0x77 JUMPI DUP1 PUSH4 0x98D5FDCA EQ PUSH2 0xA1 JUMPI DUP1 PUSH4 0xB60D4288 EQ PUSH2 0xB7 JUMPI DUP1 PUSH4 0xF36089EC EQ PUSH2 0xC1 JUMPI JUMPDEST PUSH0 DUP1 REVERT JUMPDEST CALLVALUE DUP1 ISZERO PUSH2 0x58 JUMPI PUSH0 DUP1 REVERT JUMPDEST POP PUSH2 0x61 PUSH2 0xD7 JUMP JUMPDEST PUSH1 0x40 MLOAD PUSH2 0x6E SWAP2 SWAP1 PUSH2 0x1DE JUMP JUMPDEST PUSH1 0x40 MLOAD DUP1 SWAP2 SUB SWAP1 RETURN JUMPDEST CALLVALUE DUP1 ISZERO PUSH2 0x82 JUMPI PUSH0 DUP1 REVERT JUMPDEST POP PUSH2 0x8B PUSH2 0x15E JUMP JUMPDEST PUSH1 0x40 MLOAD PUSH2 0x98 SWAP2 SWAP1 PUSH2 0x1DE JUMP JUMPDEST PUSH1 0x40 MLOAD DUP1 SWAP2 SUB SWAP1 RETURN JUMPDEST CALLVALUE DUP1 ISZERO PUSH2 0xAC JUMPI PUSH0 DUP1 REVERT JUMPDEST POP PUSH2 0xB5 PUSH2 0x163 JUMP JUMPDEST STOP JUMPDEST PUSH2 0xBF PUSH2 0x165 JUMP JUMPDEST STOP JUMPDEST CALLVALUE DUP1 ISZERO PUSH2 0xCC JUMPI PUSH0 DUP1 REVERT JUMPDEST POP PUSH2 0xD5 PUSH2 0x1C4 JUMP JUMPDEST STOP JUMPDEST PUSH0 PUSH20 0x694AA1769357215DE4FAC081BF1F309ADC325306 PUSH20 0xFFFFFFFFFFFFFFFFFFFFFFFFFFFFFFFFFFFFFFFF AND PUSH4 0x54FD4D50 PUSH1 0x40 MLOAD DUP2 PUSH4 0xFFFFFFFF AND PUSH1 0xE0 SHL DUP2 MSTORE PUSH1 0x4 ADD PUSH1 0x20 PUSH1 0x40 MLOAD DUP1 DUP4 SUB DUP2 DUP7 GAS STATICCALL ISZERO DUP1 ISZERO PUSH2 0x135 JUMPI RETURNDATASIZE PUSH0 DUP1 RETURNDATACOPY RETURNDATASIZE PUSH0 REVERT JUMPDEST POP POP POP POP PUSH1 0x40 MLOAD RETURNDATASIZE PUSH1 0x1F NOT PUSH1 0x1F DUP3 ADD AND DUP3 ADD DUP1 PUSH1 0x40 MSTORE POP DUP2 ADD SWAP1 PUSH2 0x159 SWAP2 SWAP1 PUSH2 0x225 JUMP JUMPDEST SWAP1 POP SWAP1 JUMP JUMPDEST PUSH0 SLOAD DUP2 JUMP JUMPDEST JUMP JUMPDEST PUSH1 0x2 PUSH0 SLOAD PUSH2 0x173 SWAP2 SWAP1 PUSH2 0x27D JUMP JUMPDEST PUSH0 DUP2 SWAP1 SSTORE POP PUSH8 0xDE0B6B3A7640000 CALLVALUE GT PUSH2 0x1C2 JUMPI PUSH1 0x40 MLOAD PUSH32 0x8C379A000000000000000000000000000000000000000000000000000000000 DUP2 MSTORE PUSH1 0x4 ADD PUSH2 0x1B9 SWAP1 PUSH2 0x30A JUMP JUMPDEST PUSH1 0x40 MLOAD DUP1 SWAP2 SUB SWAP1 REVERT JUMPDEST JUMP JUMPDEST JUMP JUMPDEST PUSH0 DUP2 SWAP1 POP SWAP2 SWAP1 POP JUMP JUMPDEST PUSH2 0x1D8 DUP2 PUSH2 0x1C6 JUMP JUMPDEST DUP3 MSTORE POP POP JUMP JUMPDEST PUSH0 PUSH1 0x20 DUP3 ADD SWAP1 POP PUSH2 0x1F1 PUSH0 DUP4 ADD DUP5 PUSH2 0x1CF JUMP JUMPDEST SWAP3 SWAP2 POP POP JUMP JUMPDEST PUSH0 DUP1 REVERT JUMPDEST PUSH2 0x204 DUP2 PUSH2 0x1C6 JUMP JUMPDEST DUP2 EQ PUSH2 0x20E JUMPI PUSH0 DUP1 REVERT JUMPDEST POP JUMP JUMPDEST PUSH0 DUP2 MLOAD SWAP1 POP PUSH2 0x21F DUP2 PUSH2 0x1FB JUMP JUMPDEST SWAP3 SWAP2 POP POP JUMP JUMPDEST PUSH0 PUSH1 0x20 DUP3 DUP5 SUB SLT ISZERO PUSH2 0x23A JUMPI PUSH2 0x239 PUSH2 0x1F7 JUMP JUMPDEST JUMPDEST PUSH0 PUSH2 0x247 DUP5 DUP3 DUP6 ADD PUSH2 0x211 JUMP JUMPDEST SWAP2 POP POP SWAP3 SWAP2 POP POP JUMP JUMPDEST PUSH32 0x4E487B7100000000000000000000000000000000000000000000000000000000 PUSH0 MSTORE PUSH1 0x11 PUSH1 0x4 MSTORE PUSH1 0x24 PUSH0 REVERT JUMPDEST PUSH0 PUSH2 0x287 DUP3 PUSH2 0x1C6 JUMP JUMPDEST SWAP2 POP PUSH2 0x292 DUP4 PUSH2 0x1C6 JUMP JUMPDEST SWAP3 POP DUP3 DUP3 ADD SWAP1 POP DUP1 DUP3 GT ISZERO PUSH2 0x2AA JUMPI PUSH2 0x2A9 PUSH2 0x250 JUMP JUMPDEST JUMPDEST SWAP3 SWAP2 POP POP JUMP JUMPDEST PUSH0 DUP3 DUP3 MSTORE PUSH1 0x20 DUP3 ADD SWAP1 POP SWAP3 SWAP2 POP POP JUMP JUMPDEST PUSH32 0x6E6F7420656E6F75676800000000000000000000000000000000000000000000 PUSH0 DUP3 ADD MSTORE POP JUMP JUMPDEST PUSH0 PUSH2 0x2F4 PUSH1 0xA DUP4 PUSH2 0x2B0 JUMP JUMPDEST SWAP2 POP PUSH2 0x2FF DUP3 PUSH2 0x2C0 JUMP JUMPDEST PUSH1 0x20 DUP3 ADD SWAP1 POP SWAP2 SWAP1 POP JUMP JUMPDEST PUSH0 PUSH1 0x20 DUP3 ADD SWAP1 POP DUP2 DUP2 SUB PUSH0 DUP4 ADD MSTORE PUSH2 0x321 DUP2 PUSH2 0x2E8 JUMP JUMPDEST SWAP1 POP SWAP2 SWAP1 POP JUMP INVALID LOG2 PUSH5 0x6970667358 0x22 SLT KECCAK256 SGT PUSH18 0xE5D0060502CCE1861CF79A00BDDA1AA49D0B 0xD7 GASLIMIT POP JUMPDEST 0xCB SHR 0xB2 DUP14 CALLDATACOPY 0xB1 SMOD DUP1 PUSH5 0x736F6C6343 STOP ADDMOD BYTE STOP CALLER "
		},
		"gasEstimates": {
			"creation": {
				"codeDepositCost": "172400",
				"executionCost": "22317",
				"totalCost": "194717"
			},
			"external": {
				"fund()": "infinite",
				"getConversionRate()": "209",
				"getPrice()": "165",
				"getVersion()": "infinite",
				"myValue()": "2424"
			}
		},
		"methodIdentifiers": {
			"fund()": "b60d4288",
			"getConversionRate()": "f36089ec",
			"getPrice()": "98d5fdca",
			"getVersion()": "0d8e6e2c",
			"myValue()": "47f1aae7"
		}
	},
	"abi": [
		{
			"inputs": [],
			"name": "fund",
			"outputs": [],
			"stateMutability": "payable",
			"type": "function"
		},
		{
			"inputs": [],
			"name": "getConversionRate",
			"outputs": [],
			"stateMutability": "nonpayable",
			"type": "function"
		},
		{
			"inputs": [],
			"name": "getPrice",
			"outputs": [],
			"stateMutability": "nonpayable",
			"type": "function"
		},
		{
			"inputs": [],
			"name": "getVersion",
			"outputs": [
				{
					"internalType": "uint256",
					"name": "",
					"type": "uint256"
				}
			],
			"stateMutability": "view",
			"type": "function"
		},
		{
			"inputs": [],
			"name": "myValue",
			"outputs": [
				{
					"internalType": "uint256",
					"name": "",
					"type": "uint256"
				}
			],
			"stateMutability": "view",
			"type": "function"
		}
	]
}